:1000000022C03CC03BC0C4C339C038C037C079C36C
:1000100035C034C033C086C231C030C0EAC02EC043
:100020002DC02CC02BC02AC029C029C027C026C083
:1000300025C024C023C03C0078002C0158020102D6
:1000400004081020408011241FBECFEFD2E0DEBF95
:10005000CDBF11E0A0E0B1E0E0E6FFE002C0059016
:100060000D92A630B107D9F721E0A6E0B1E001C0BA
:100070001D92AD31B207E1F79CD370C7C1CF1F927B
:100080000F920FB60F9211242F933F934F938F939C
:100090009F93809178009091790020910601309192
:1000A0000701280F391F3093070120930601409163
:1000B0000401415019F04093040121C040E14093F4
:1000C000040130931701209316011092070110923A
:1000D00006018927982F92959F708F709827892FF6
:1000E000869586959370892720911801982F96956B
:1000F00081709827822F880F892B80931801809117
:100100007A00806180937A0080917A008064809385
:100110007A009F918F914F913F912F910F900FBE39
:100120000F901F9018958FB7F894609116017091F9
:1001300017018FBF80E090E026D529E23CE54FE62D
:1001400059E3D3C587EC80937C00EAE7F0E08AE8C6
:10015000808310927B0080818064808310921701DD
:100160001092160108958AB1897F8AB98BB1866091
:100170008BB98AB187788AB99BB12BB138E0939F4C
:10018000C0011124822B8BB957985F9A2098289A26
:1001900008958BB1897F8BB98BB187788BB95F98C4
:1001A0002898089589B186958695869580958F7053
:1001B000089589B1869580958370089599B1991FA6
:1001C0009927991F1899926083E0891B0895F894E4
:1001D00090930B0180930A0178940895F8942091EC
:1001E0000A0130910B01789481E0232B09F080E023
:1001F000089578941F920F920FB60F9211248F9347
:100200009F9380910A0190910B01009709F001974B
:1002100090930B0180930A019F918F910F900FBED5
:100220000F901F90189584E48093BC001092B80042
:100230001092B90010920B0110920A0182E084BD65
:1002400085BD9CE797BD80936E00449A459A0895BA
:100250001092BC0015BC449845980895009749F049
:10026000B6DF8091BC0087FDB9CFB8DF8823C9F322
:10027000FBCF8091BC0087FFFCCF80E008958F9278
:100280009F92AF92BF92CF92DF92EF92FF920F9325
:100290001F93CF93DF93D82F5B01D42EC22E84EA15
:1002A0008093BC00C801DADF811105C08091B900DC
:1002B000887F883029F084E98093BC00C1E08FC03A
:1002C0008D2F880F8093BB0084E88093BC00C80109
:1002D000C5DFC82F81117FC08091B900887F883128
:1002E00009F079C07501AD0CB11C470184E8D82E26
:1002F0008A149B04A9F0F40181914F018093BB0003
:10030000D092BC00C801AADF811105C08091B9005C
:10031000887F883269F384E98093BC00C3E05FC0C2
:10032000C11004C084E98093BC0059C084EA809362
:10033000BC00C80193DF811105C08091B900887F9E
:10034000803129F084E98093BC00C4E048C0DD0F0F
:10035000D160D093BB0084E88093BC00C8017EDFED
:1003600081110DC08091B900887F803441F4D12C77
:10037000A12CB12C4601F1E08F1A91081DC084E92F
:100380008093BC00C5E02BC084EC8093BC00C80106
:1003900065DF81111BC08091B900887F803589F4A9
:1003A0008091BB00F70181937F01FFEFAF1ABF0A75
:1003B000AC14BD0409F4B6CFA814B9042CF384E836
:1003C000E4CF8091B900887F883551F384E9809328
:1003D000BC00C6E004C084E98093BC00C2E08C2F5E
:1003E000DF91CF911F910F91FF90EF90DF90CF9011
:1003F000BF90AF909F908F900895DF92EF92FF9201
:100400000F931F93CF93DF9300D0CDB7DEB77C015E
:10041000FC01108285EE89831A8204E610E022E056
:1004200041E0BE016F5F7F4F80E429DF082F81111B
:1004300020C0DA801981612F70E0762F66276D0D5C
:10044000711D80E090E09FD320E030E04AEF52E45D
:100450004CD420E030E040E857E347D420E030E0DF
:1004600040EC50E48ED263D3F70160831D251093D6
:100470001B01802F0F900F90DF91CF911F910F9153
:10048000FF90EF90DF900895DF92EF92FF920F932D
:100490001F93CF93DF9300D0CDB7DEB77C01FC0173
:1004A0001182108280EE89831A8204E610E022E035
:1004B00041E0BE016F5F7F4F80E4E1DE082F8111D4
:1004C00026C0DA801981612F70E0762F66276D0DC6
:1004D000711D80E090E057D322E538EB4FE253E402
:1004E00004D420E030E040E857E3FFD326E636E6C8
:1004F0004BE352E446D220E030E040E251E4F5D351
:1005000011D3F701718360831D2510931B01802F88
:100510000F900F90DF91CF911F910F91FF90EF906F
:10052000DF9008951F920F920FB60F9211242F9310
:100530003F938F939F93AF93BF93EF93FF938091DC
:100540001401882351F0439A1092140184EF91E032
:1005500090938900809388005BC043988091130139
:10056000882309F44DC091E090931401813051F437
:1005700084E391E2909389008093880082E08093E5
:10058000130146C0823051F5809112018150E82F4D
:10059000E770F0E0E25CFF4FE491A82FA695A695E6
:1005A000A695B0E0A35FBE4F9C91E92319F023E725
:1005B0003EE002C028E037E03093890020938800B5
:1005C000811109C08091150181508093150183E04C
:1005D0008093130184E2809312011AC0833081F466
:1005E00027EE33E030938900209388008091150135
:1005F000882319F0909313010BC01092130108C0C7
:1006000084E08093130188E08093810010926F0052
:10061000FF91EF91BF91AF919F918F913F912F915A
:100620000F900FBE0F901F9018953B9A4398109211
:1006300013010895439888E08093810010926F0021
:1006400008958FEF9FEF9093890080938800109218
:100650008500109284001092800089E080938100D0
:100660008FEF86BB82E080936F00EDE0F1E081E0E8
:10067000868394E2958397E09087878380E88093D0
:10068000820008951F93CF93DF93EC01FFD360E1C5
:1006900070E08ED388568093B3001FB7F894BE01E4
:1006A00080E090E070D220E030E040EA50E4D2D127
:1006B0003ED2623010F070E002C061E070E07093F2
:1006C00009016093080180910801909109019093BC
:1006D0001A01809319011FBFDF91CF911F910895D7
:1006E00085E090E0CFDF82E08093B00097E09093C8
:1006F000B10090E29093B6008093700010921C01BC
:1007000008951F920F920FB60F9211248F939F930B
:100710008091190190911A01019790931A01809389
:1007200019018091190190911A01892B59F4809136
:1007300008019091090190931A018093190181E0B9
:1007400080931C019F918F910F900FBE0F901F906F
:100750001895219A299A0895219A29980895509ACE
:10076000399A813019F4419A58980895823011F4D9
:10077000589A01C058984198089522982A9A84E07E
:1007800080936B0081E08093680010920C010895C3
:100790001F920F920FB60F9211248F931A9903C0D4
:1007A00081E080930C018F910F900FBE0F901F90EE
:1007B0001895CF93DF9300D000D0CDB7DEB784B7C4
:1007C0008C8314BE0FB6F894A89580916000886160
:1007D00080936000109260000FBE14B817B81AB86A
:1007E0008C8182FF06C08FE493EC0197F1F700C083
:1007F000000086E080936400A5DC10927A00B3DCF0
:10080000C8DC13DF17DF0FDD23DDA3DFB6DF68DF12
:1008100080E0A5DF7894EE24EA9410E099E0D92EE8
:1008200020E6C22E30E4732E97DFFDDC8BDCFDDE8C
:1008300087EA91E60197F1F700C000001A82198259
:100840001B82CE010396D9DDCE0101961DDE6BDC45
:100850004B015C012AE939E949E150E4F7D0F82E6F
:10086000FF1CFF24FF1C10927A007DDCA2DC082F05
:10087000E81699F01091B200809118011827809124
:100880001B0118279FEFE91203C0812F90E001D3CD
:10089000812F8F7012951F70182784DCE82E81112C
:1008A00001C0E12E8BDCE82FF0E0EE0FFF1FEA5CC9
:1008B000FF4F85919491E6DED0921101E0921001F4
:1008C00090910C0149812A81822F8F7050E4959F6D
:1008D00090011124282B30E1039FC0011124822BA9
:1008E000F794FF24F7948F2980930F0140930E0112
:1008F0008B8180930D014DDCA4DE2AE939E949E1C1
:1009000050E4C501B401A2D0881F8827881F8F5FDB
:1009100026DF83EC99E00197F1F700C0000080E04A
:100920001EDF80911301843039F089EF90E0019748
:10093000F1F700C00000F5CF7DDE8ADC0ADF1092FF
:100940001C0110920C01F894C5BE75BE83B7817F5F
:10095000866083BF83B7816083BF85B7806685BFAC
:100960008F7D85BF7894889583B78E7F83BF809174
:100970000C01811104C080911C01882321F3E02E19
:1009800053CF5058BB27AA270ED075C166D130F07F
:100990006BD120F031F49F3F11F41EF45BC10EF4D3
:1009A000E095E7FB51C1E92F77D180F3BA176207D1
:1009B00073078407950718F071F49EF58FC10EF444
:1009C000E0950B2EBA2FA02D0B01B90190010C015F
:1009D000CA01A0011124FF27591B99F0593F50F477
:1009E000503E68F11A16F040A22F232F342F4427CF
:1009F000585FF3CF469537952795A795F0405395C7
:100A0000C9F77EF41F16BA0B620B730B840BBAF096
:100A10009150A1F0FF0FBB1F661F771F881FC2F701
:100A20000EC0BA0F621F731F841F48F48795779515
:100A30006795B795F7959E3F08F0B3CF9395880FCC
:100A400008F09927EE0F979587950895D9D008F467
:100A500081E008950CD00FC107D140F0FED030F0F6
:100A600021F45F3F19F0F0C0511139C1F3C014D126
:100A700098F39923C9F35523B1F3951B550BBB2765
:100A8000AA2762177307840738F09F5F5F4F220F12
:100A9000331F441FAA1FA9F333D00E2E3AF0E0E80B
:100AA00030D091505040E695001CCAF729D0FE2F57
:100AB00027D0660F771F881FBB1F261737074807E9
:100AC000AB07B0E809F0BB0B802DBF01FF2793589F
:100AD0005F4F2AF09E3F510568F0B6C000C15F3FEE
:100AE000ECF3983EDCF3869577956795B795F79587
:100AF0009F5FC9F7880F911D9695879597F908957F
:100B0000E1E0660F771F881FBB1F6217730784071A
:100B1000BA0720F0621B730B840BBA0BEE1F88F729
:100B2000E095089504D06894B111D9C00895BCD05F
:100B300088F09F5790F0B92F9927B751A0F0D1F0C6
:100B4000660F771F881F991F1AF0BA95C9F712C050
:100B5000B13081F0C3D0B1E00895C0C0672F782FC5
:100B60008827B85F39F0B93FCCF3869577956795BC
:100B7000B395D9F73EF490958095709561957F4F28
:100B80008F4F9F4F0895E89409C097FB3EF49095CE
:100B90008095709561957F4F8F4F9F4F9923A9F056
:100BA000F92F96E9BB279395F695879577956795E5
:100BB000B795F111F8CFFAF4BB0F11F460FF1BC029
:100BC0006F5F7F4F8F4F9F4F16C0882311F096E9BC
:100BD00011C0772321F09EE8872F762F05C066236A
:100BE00071F096E8862F70E060E02AF09A95660F23
:100BF000771F881FDAF7880F9695879597F90895DC
:100C0000990F0008550FAA0BE0E8FEEF161617061D
:100C1000E807F907C0F012161306E407F50798F085
:100C2000621B730B840B950B39F40A2661F0232B9E
:100C3000242B252B21F408950A2609F4A140A6951A
:100C40008FEF811D811D089597F99F6780E870E0FF
:100C500060E008959FEF80EC089500240A94161632
:100C6000170618060906089500240A94121613069A
:100C7000140605060895092E0394000C11F4882328
:100C800052F0BB0F40F4BF2B11F460FF04C06F5F44
:100C90007F4F8F4F9F4F089557FD9058440F551F1A
:100CA00059F05F3F71F04795880F97FB991F61F0EE
:100CB0009F3F79F087950895121613061406551F65
:100CC000F2CF4695F1DF08C0161617061806991FD1
:100CD000F1CF86957105610508940895E894BB27C6
:100CE00066277727CB0197F908950BD0C4CFB5DFDE
:100CF00028F0BADF18F0952309F0A6CFABCF112466
:100D0000EECFCADFA0F3959FD1F3950F50E0551FAA
:100D1000629FF001729FBB27F00DB11D639FAA2750
:100D2000F00DB11DAA1F649F6627B00DA11D661F9F
:100D3000829F2227B00DA11D621F739FB00DA11DC0
:100D4000621F839FA00D611D221F749F3327A00D7A
:100D5000611D231F849F600D211D822F762F6A2F16
:100D600011249F5750408AF0E1F088234AF0EE0F9B
:100D7000FF1FBB1F661F771F881F91505040A9F7A8
:100D80009E3F510570F060CFAACF5F3FECF3983ED5
:100D9000DCF3869577956795B795F795E7959F5F0F
:100DA000C1F7FE2B880F911D9695879597F90895A9
:100DB00097FB072E16F4009406D077FD08D00BD0D1
:100DC00007FC05D03EF4909581959F4F089570954E
:100DD00061957F4F0895AA1BBB1B51E107C0AA1F55
:100DE000BB1FA617B70710F0A61BB70B881F991FCC
:100DF0005A95A9F780959095BC01CD0108958F92E1
:100E00009F92AF92BF92CF92DF92EF92FF92CF93D9
:100E1000DF93EC01688179818A819B81611571057D
:100E20008105910521F464E279ED8BE597E02DE1F0
:100E300033EF41E050E038D049015A019B01AC0149
:100E4000A7EAB1E44DD06B017C01ACEEB4EFA50193
:100E5000940152D0DC01CB018C0D9D1DAE1DBF1D38
:100E6000B7FF03C00197A109B04888839983AA837B
:100E7000BB839F77DF91CF91FF90EF90DF90CF9072
:100E8000BF90AF909F908F900895B9CF80E091E090
:100E9000B6CFA0E0B0E08093000190930101A09351
:100EA0000201B09303010895052E97FB16F40094F8
:100EB0000FD057FD05D024D007FC02D046F408C05F
:100EC00050954095309521953F4F4F4F5F4F089576
:100ED00090958095709561957F4F8F4F9F4F0895A6
:100EE00031D0A59F900DB49F900DA49F800D911DB2
:100EF00011240895B7FFF4CFF3DF821B930B0895FD
:100F0000A1E21A2EAA1BBB1BFD010DC0AA1FBB1F0D
:100F1000EE1FFF1FA217B307E407F50720F0A21B7F
:100F2000B30BE40BF50B661F771F881F991F1A94EC
:100F300069F760957095809590959B01AC01BD0116
:100F4000CF010895A29FB001B39FC001A39F01D01C
:100F5000B29F700D811D1124911D0895F894FFCF4B
:060F60000100000010007A
:00000001FF
